S01C0000436564726F6E6963734C696E65466F6C6C6F7765722E68657804
S113000000300020E1250000DD160000E9160000A4
S1130010E9160000E9160000E9160000E9160000E0
S1130020E9160000E9160000E9160000E9160000D0
S1130030E9160000E9160000E9160000B9120000F4
S1130040E9160000E9160000E9160000E9160000B0
S1130050E9160000E9160000E9160000E9160000A0
S1130060E9160000E9160000E9160000E916000090
S1130070E9160000E9160000E916000069240000F2
S1130080E9160000E9160000E9160000E916000070
S1130090E9160000E9160000E9160000E916000060
S11300A0E9160000E9160000E9160000E916000050
S11300B0E9160000E9160000E9160000E916000040
S1130400FFFFFFFFFFFFFFFFFFFFFFFF7EFFFFFF79
S113041002B4714649084900095649008E4402BC99
S11304207047C04602B4714649084900095C490056
S11304308E4402BC7047C046002934D001230022F8
S113044010B488422CD301242407A14204D281424F
S113045002D209011B01F8E7E400A14204D281425F
S113046002D249005B00F8E7884201D3401A1A43DC
S11304704C08A04202D3001B5C0822438C08A04213
S113048002D3001B9C082243CC08A04202D3001BC9
S1130490DC082243002803D01B0901D00909E3E743
S11304A0101C10BC7047002801D00020C04307B4C2
S11304B0024802A14018029003BDC0461900000082
S11304C00029F0D003B5FFF7B9FF0EBC4243891AE7
S11304D01847C0467047C0468446081C6146FFE77B
S11304E01FB500F0BBF8002801D40021C8421FBD8D
S11304F010B500F043F84042013010BD10B500F0D3
S1130500ADF8002801DB002010BD012010BDC0465D
S113051010B500F0A3F8002801DD002010BD012073
S113052010BDC04610B500F051F8002801DC0020D1
S113053010BD012010BDC04610B500F047F80028DA
S113054001DA002010BD012010BDC0469E2110B567
S1130550C905041CFFF7F0FF002803D1201C00F09C
S1130560CBFB10BD9E22201CD10500F0EFF900F05A
S1130570C3FB80231C060019F3E7C0464302420074
S113058070B55C0AC60F130E48024A00450A120EE3
S1130590C90FFF2B05D0FF2A08D0012093420BD0AE
S11305A070BD0120002CFBD1FF2AF6D10120002DC3
S11305B0F6D101209342F3D1AC42F1D18E4203D063
S11305C0002BEDD1002CEBD10020E9E7F0B543027C
S11305D042004F00C60F48025C0A450A130EC90FB9
S11305E03A0EFF2B26D0FF2A29D0002B0CD16042D3
S11305F060418446002A0AD0002816D18E4221D0B8
S1130600002E14D1012014E0002AF7D194466F4241
S11306106F416046002805D1002FEFD00120002E45
S113062007D004E00020002F03D10029EAD10121E2
S11306304842F0BD002CD6D002225042F9E7002DEA
S1130640D3D0F9E79342DBDC04DBAC42D8D80020FA
S1130650AC42EED2002EEAD00120EAE7F0B5430224
S113066042004F00C60F48025C0A450A130EC90F28
S11306703A0EFF2B26D0FF2A28D0002B0FD0002AB9
S113068014D194466F426F416046002814D0002074
S1130690002F03D100290DD101214842F0BD604251
S11306A060418446002AEDD00028F3D18E4211D057
S11306B0002EF1D10120F1E7002FF7D00120002E08
S11306C0ECD0E9E70220002CE8D1D4E70220002D89
S11306D0E4D1D2E79342EBDC04DBAC42E8D800205F
S11306E0AC42DBD2002ED7D00120D7E7F0B55F466D
S11306F056464D464446F0B44502460083B00F1CAE
S11307006D0A360EC40F002E06D1002D70D10421BF
S113071001228846924609E0FF2E43D08023180424
S113072000210543ED007F3E88468A46381C43007D
S11307307F02C10F7F0A1B0E8B463AD10121002F85
S113074062D158466040424601900A430F2A3FD97D
S11307502C04F018260C3B041A0C311C51433F0C9A
S11307602D0C7E436A438146080C36182C1CB318A2
S11307707C439A4200D99AE009041D04080C2E18FF
S1130780B5011B0C691E8D41B20EE7181543BC015F
S113079025432B014BD50120284001216D088944B4
S11307A0054344E0002D1ED10820022180468A46DC
S11307B0BCE7FF2B12D080221004074358460021C7
S11307C060404246FF007F3B01900A430F2ABFD896
S11307D090005B4A8446624410688746391C4A1E6E
S11307E091410231ADE70C22032390469A469DE7DE
S11307F0281C00F0F5FA7622461F5342B5401E1A13
S113080000208046824691E7381C00F0E9FA762100
S1130810431F4A429F400021131A92E70194514614
S113082002292CD0032900D180E0012948D04E466A
S11308307F36002E51DD0F242C40042C00D00435CB
S11308402A0103D53F494E460D408036FE2E3DDD3C
S1130850019B01241C40FF210025C805E207284311
S1130860104303B03CBC90469946A246AB46F0BD4B
S11308700024354DFF21F0E751460229D2D1019DD4
S113088001242C40FF210025E7E75E463D1C01962C
S1130890C6E73D1CC4E78026F3031D420BD01F426C
S11308A009D11F437A02550A5C46FF21D5E780220D
S11308B05702E41960E71D436F027D0AFF21CCE76C
S11308C0019B00251940CCB20021C6E70198AD0177
S11308D001246D0AF1B20440BFE77E2673424A4602
S11308E09F1A1B2F05DD019D01242C4000210025AA
S11308F0B3E749469E312C1C8D402E1CFC40751ECE
S1130900AE4126430F203040042800D00436700145
S113091005D5019F01243C40012100259DE7019A52
S1130920B30101245D0A1440002196E78022D0031C
S113093005436C020199650A01240C40FF218CE7F0
S1130940A8390000FFFFFFF7FFFF7F00F8B543025F
S113095045004F024C00C20F980984462D0E200E0C
S1130960C90FBF09FF2851D0012671408A4238D0EF
S11309702C1A002C00DC86E0002822D1002F48D15C
S11309806E1C2C1C6346151C0F221A40042A00D02E
S1130990043301222A40580106D5FF2E00D181E0FC
S11309A0B04D341C2B400136F6B2DD08012E62DD59
S11309B06802450AE4B2E4052543281CD207104323
S11309C0F8BDFF2D51D08021CB041F4301261B2CE1
S11309D070DD67462C1CBB1B151C580122D4661CF9
S11309E0D2E72E1A002E76DD002832D0FF2D3CD01F
S11309F08024E1040F4301231B2E00DCD1E0634477
S1130A002C1C58017AD4661C151CBDE7002FADD1EF
S1130A10AAE7013C002C6DD163462C1CDB1B151C82
S1130A205801DCD59A019609301C00F0D9F9053833
S1130A308640844239DC001B1F231A1A331C311CE4
S1130A40441C9340E1405E1EB3410B430126002445
S1130A509AE7002F00D193E7013E002E03D16446AC
S1130A603B192C1CCDE7FF2DC5D1151C80226346F4
S1130A705600FF2488E7002D9CD0002C28D0802726
S1130A80F9030D4394E7002C45D16B1CD8B201281F
S1130A9000DC90E06446E61B730157D53E1B2C1C1A
S1130AA00D1CC1E7FF24002585E76E4B241A334053
S1130AB0661C69E7381C2021E0400C1BA7403E1C43
S1130AC0771EBE41064367462C1CBB1B151C84E7DE
S1130AD06B025D0A6FE7002E79D16C1CE0B201282D
S1130AE04BDDFF2C00D198E061467F18AE1C7B08DB
S1130AF0151C49E7FF2D00D068E7B6E7671CFF2FF8
S1130B0036D058480121194003405B08A61C0B430A
S1130B103C1C151C38E76642002D1ED0FF286FD000
S1130B2080256246EB041A43944601251B2E09DCFA
S1130B3062462023F24064469E1BB440251C6C1E72
S1130B40A54115437B1B041C0D1C69E7002E0CD129
S1130B5000220126042300241DE76446002C55D1FD
S1130B60461C3B1C041C0D1C0EE72C1C151C5BE7CF
S1130B7080235E00FF2404230DE7002D00D08CE0C9
S1130B806546002D00D1ACE0002F00D180E07B1938
S1130B905C0100D47DE0334F151C3B400226012448
S1130BA0F2E6381C2023F0409E1BB7403B1C5F1E1E
S1130BB0BB41034323E7002D15D16546002D47D1E2
S1130BC0002FC5D03B1C0D1C01260024DCE6764218
S1130BD0002D26D16546002D00D07CE0461C3B1C30
S1130BE0041C151CD0E66546002D3FD1002F07D10B
S1130BF0802100224E001C4BFF24CCE6FF2894D118
S1130C0080203B1C0D1C4600FF24BDE6013E002E47
S1130C10F4D13B1B0D1C041C02E780256E00042349
S1130C20B9E6FF2851D080246146E30419438C4679
S1130C3001231B2E09DC20216446F44065468E1BEB
S1130C40B5402B1C591E8B412343DB19041CD8E6E9
S1130C50002F1DD0EB1B58014AD57B1B01260D1C10
S1130C60002491E6FFFFFFFBFCFFFF03002F00D1F0
S1130C70FBE68020EB08C403234237D0FF08274259
S1130C8034D13B1C0D1C8022DB005600FF247BE684
S1130C906346151C0126002476E66446002C14D015
S1130CA0002F00D1E1E68023E608D803311C064278
S1130CB003D0F908014200D0311C151C8022CB005E
S1130CC05600FF2460E6FF28B2D180203B1C151C8F
S1130CD04600FF2458E6013E002EF4D17B19041C83
S1130CE08FE63B1C151C012600244DE6151CCAE7A3
S1130CF0002B00D12CE7CCE743024200590A00B58F
S1130D00130EC20F00207E2B0DDD9D2B0CDC8020EA
S1130D1000040143952B0ADC9620C31AD9404842AB
S1130D20002A00D1081C00BD02495018FBE7963B7D
S1130D309940F4E7FFFFFF7F70B5041E3CD0C50F58
S1130D4000D04442201C00F04BF89E21261C0B1AB4
S1130D50962B0ADC0838844061024C0ADBB2DB05BE
S1130D601C43ED07201C284370BD992B0ADD052286
S1130D70141A311CE140041C1B34A6400A1C711EC9
S1130D808E41164305281BDC144C0F2234401640B8
S1130D90042E00D00434620105D59F231B1AFF2BB7
S1130DA00CD00E4804405E1CF1B2E40801290ADDAF
S1130DB06402640ADBB2D2E7002500230024CEE7F4
S1130DC0411F8E40E0E7002CF4D0002B03D080229A
S1130DD0D0030443ECE76602740AC0E7FFFFFFFB9D
S1130DE01C2101231B04984201D3000C10391B0A57
S1130DF0984201D3000A08391B09984201D300091B
S1130E00043902A2105C40187047C0460403020271
S1130E1001010101000000000000000080B584B061
S1130E2000AF78600D4BFB60FB687A689A60FB68E2
S1130E3001221A71002000F0CFF9021CFB681A602D
S1130E40FB681B68002B01D1002303E0044BFA6804
S1130E50DA60FB68181CBD4604B080BD04F0FF1FB7
S1130E6058F0FF1F80B584B000AF78607B68FB60EA
S1130E70FB681B79002B07D1FB6801221A71FB6800
S1130E801B68181C00F0F4F90023181CBD4604B0BC
S1130E9080BDC04680B584B000AF78607B68FB60DD
S1130EA0FB681B79002B07D0FB6800221A71FB68D2
S1130EB01B68181C00F0EEF90023181CBD4604B092
S1130EC080BDC04680B584B000AF7860054BDB6858
S1130ED0FB60FB689B68181C00F022FDBD4604B053
S1130EE080BDC04658F0FF1F80B584B000AF786065
S1130EF0274BDB6A002B39D1264BFB60FB687A68F1
S1130F009A60FB6801221A71234A2349234BCB5868
S1130F10802189041943214BD150214B00221A60AE
S1130F201F4B00225A601E4B0022DA601C4B002229
S1130F305A611B4B1B4A9A60194B2C225A61184B5D
S1130F40194A9A61194B194A5168194A0A40C02131
S1130F5089000A435A60FB6808221A60104B0B226E
S1130F601A600B4BFA68DA62FB680CE0084BDB6A28
S1130F70FB60FB687A689A60FB681B790133DAB21C
S1130F80FB681A71FB68181CBD4604B080BDC046DE
S1130F9058F0FF1F10F0FF1F007004403C100000C9
S1130FA000900340CCCC00007DBF000000A00440B2
S1130FB0FFF8FFFE80B584B000AF786039600B4B5A
S1130FC09A683B1C0E331A803B1C0E333A1C0E32BB
S1130FD0128801321A803B683A1C0E3212881A8039
S1130FE00023181CBD4604B080BDC04600900340D9
S1130FF080B582B000AF7860FB1C19703B1C1A806E
S1131000FB1C1B78002B01D0822313E0FB1C1B78F4
S11310100A4AD35C002B01D009230BE00849FB1CCE
S11310201B78084AD35C3A1C12880133DB00CB18C6
S11310309A600023181CBD4602B080BDEC39000044
S113104000900340E839000080B584B000AF7860B8
S1131050334B5B69002B51D1324BFB60FB687A68E0
S11310605A60FB6801221A702F4A2F492F4BCB5824
S11310708021490419432D4BD1502D4B00221A6075
S11310802B4B00225A602A4B0022DA60284B0022A4
S11310905A61274B0022DA61254B00225A62244B05
S11310A00022DA62224B00225A63214B214A9A60C1
S11310B01F4B2C225A621E4B1F4A9A621C4B2C2235
S11310C0DA601B4B1C4A1A611C4B1C4A11691C4AEE
S11310D00A408021C9000A431A61184B174A516813
S11310E0174A0A408021C9000A435A60104B08225B
S11310F01A600B4BFA685A61FB680CE0084B5B6999
S1131100FB60FB687A685A60FB681B780133DAB2CB
S1131110FB681A70FB68181CBD4604B080BDC0464D
S113112058F0FF1F1CF0FF1F007004403C1000002B
S113113000800340EB510000F628000000B004409A
S1131140FFF8FFFE80B584B000AF786039600B4BC8
S11311509A683B1C0E331A803B1C0E333A1C0E3229
S1131160128801321A803B683A1C0E3212881A80A7
S11311700023181CBD4604B080BDC0460080034057
S113118080B582B000AF7860FB1C19703B1C1A80DC
S1131190FB1C1B78012B01D9822313E0FB1C1B7859
S11311A00A4AD35C002B01D009230BE00849FB1C3D
S11311B01B78084AD35C3A1C12880133DB00CB1835
S11311C09A600023181CBD4602B080BDF4390000AB
S11311D000800340F039000080B584B000AF78602F
S11311E01E4B9B68002B28D11D4BFB60FB687A6863
S11311F05A60FB6801221A701A4BFA681A601A4B7B
S113120000221A60184BD1225A60174B00229A60B0
S1131210164A1649D2231B01CB581B021B0A8021F4
S113122009061943D2231B01D1500F4B07221A6020
S11312300A4BFA689A60FB680CE0084B9B68FB60F9
S1131240FB687A685A60FB681B780133DAB2FB6882
S11312501A70FB68181CBD4604B080BD58F0FF1F0F
S113126024F0FF1F2CF0FF1F10E000E000E000E07E
S113127080B582B000AF7860054B054A1268012141
S11312800A431A600023181CBD4602B080BDC04644
S113129010E000E080B582B000AF7860054B054AED
S11312A0126801218A431A600023181CBD4602B04B
S11312B080BDC04610E000E080B582B000AF084BAE
S11312C01B687B60074B074A1168074A0A401A608B
S11312D07B685B68181CFFF7F5FDBD4602B080BD56
S11312E02CF0FF1F10E000E0FFFFFEFF80B500AF11
S11312F0BD4680BD80B500AF064B00221A80002099
S113130001F0CAF8021C044B1A60FFF7EFFFBD4658
S113131080BDC04630F0FF1F38F1FF1F80B584B098
S113132000AF78600F4BFB60FB687A689A60FB68DB
S113133001221A71FB680C4ADA800020FFF784FE50
S1131340021CFB681A60FB681B68002B01D1002398
S113135003E0064BFA681A62FB68181CBD4604B029
S113136080BDC04634F0FF1FFF7F000058F0FF1F10
S113137080B584B000AF78600A1CBB1C1A807B68FF
S1131380FB60BB1C1A88FA239B009A4201D90223F2
S113139023E0BB1C1B88181CFFF7CEFC031C181C85
S11313A01049FFF7A3F9031CBB60B8680E49FFF7A7
S11313B0B9F8031C002B04D0FB6801225242DA80E6
S11313C006E0B868FFF7C2F8031C9AB2FB68DA803B
S11313D07B68181C00F00AF80023181CBD4604B0F2
S11313E080BDC046AA11834200FF7F4780B586B006
S11313F000AF78607B683B613B691A683B1C0E3325
S1131400101C191CFFF79EFE3B1C0E331B88002B7F
S113141005D13B1C16333A69D2881A8011E03B1C73
S11314200E331B883A69D2885A433B1C0E331B88FF
S1131430591E80231B020B40D3181A0C3B1C163375
S11314401A803B691A683B1C16331B88101C012147
S11314501A1CFFF795FEBD4606B080BD80B584B06A
S113146000AF78600F4BFB60FB687A689A60FB689A
S113147001221A71FB680C4ADA800020FFF734FD60
S1131480021CFB681A60FB681B68002B01D1002357
S113149003E0064BFA681A63FB68181CBD4604B0E7
S11314A080BDC04640F0FF1F5BEFFFFF58F0FF1FF9
S11314B080B584B000AF78600A1CBB1C1A807B68BE
S11314C0FB60BB1C1A88164B9A4201D9022323E005
S11314D0BB1C1B88181CFFF72FFC031C181C11498C
S11314E0FFF704F9031CBB60B8680F49FFF71AF84B
S11314F0031C002B04D0FB6801225242DA8006E070
S1131500B868FFF723F8031C9AB2FB68DA807B689B
S1131510181C00F00BF80023181CBD4604B080BD55
S1131520204E0000E3B6514000FF7F4780B586B0EF
S113153000AF78607B683B613B691A683B1C0E33E3
S1131540101C191CFFF736FD3B1C0E331B88002BA7
S113155005D13B1C16333A69D2881A8011E03B1C32
S11315600E331B883A69D2885A433B1C0E331B88BE
S1131570591E80231B020B40D3181A0C3B1C163334
S11315801A803B691A683B1C16331B88101C002107
S11315901A1CFFF72DFDBD4606B080BD80B584B092
S11315A000AF78600F4BFB60FB687A689A60FB6859
S11315B001221A71FB680C4ADA800020FFF744FD0F
S11315C0021CFB681A60FB681B68002B01D1002316
S11315D003E0064BFA689A61FB68181CBD4604B028
S11315E080BDC0464CF0FF1FFF7F000058F0FF1F76
S11315F080B584B000AF78600A1CBB1C1A807B687D
S1131600FB60BB1C1A88FA239B009A4201D902236F
S113161023E0BB1C1B88181CFFF78EFB031C181C43
S11316201049FFF763F8031CBB60B8680E49FEF766
S113163079FF031C002B04D0FB6801225242DA809C
S113164006E0B868FEF782FF031C9AB2FB68DA80F2
S11316507B68181C00F00AF80023181CBD4604B06F
S113166080BDC046AA11834200FF7F4780B586B083
S113167000AF78607B683B613B691A683B1C0E33A2
S1131680101C191CFFF75EFD3B1C0E331B88002B3E
S113169005D13B1C16333A69D2881A8011E03B1CF1
S11316A00E331B883A69D2885A433B1C0E331B887D
S11316B0591E80231B020B40D3181A0C3B1C1633F3
S11316C01A803B691A683B1C16331B88101C0021C6
S11316D01A1CFFF755FDBD4606B080BD80B500AFAE
S11316E001F062F8BD4680BD80B500AFFFBEBD46C7
S11316F080BDC04680B500AF304A3149314BD1502E
S1131700314A88235B010021D1502F4A2E492F4BA7
S1131710CB58F821890119432C4BD1502A4A2A4924
S11317202A4BCB5801211943284BD150264A284B28
S11317300021D150244A2449264BC958264B19402C
S1131740244BD150204B204A1268C02109030A437C
S11317501A601D4A1C491F4BC958204B0B4080215D
S1131760490419431B4BD1501D4B06221A701C4BC4
S113177000225A701A4B1A4AD278D1B21F220A4058
S1131780D2B2DA70174B80221A70154B00221A71EC
S1131790134B00225A71C046114B9B79DBB21A1CC1
S11317A010231340F8D0C0460D4B9B79DBB21A1CB2
S11317B00C231340F8D1BD4680BDC04600E000E0D4
S11317C000000000080D0000007004403810000004
S11317D04410000004100000FFFFFEFFFFFFFFFCA9
S11317E0004006400050064080B500AF454B454AD6
S11317F01169454A0A40E021C9000A431A61434B72
S1131800424A5279D2B21F218A43D2B25A713F4B13
S11318103E4A1279D2B207218A43D2B21A713C4BA2
S11318203B4A1278D2B2D2B273218A43D2B2502147
S11318300A43D2B2D2B21A70354B354A5278D2B278
S1131840D2B263218A43D2B240210A43D2B2D2B285
S11318505A702F4B2E4A9278D2B219218A43D2B2AF
S11318609A702C4B00221A70264B264A116D264A78
S11318700A40E021C9000A431A65274A2649C123C0
S11318809B00C958254B1940C1239B00D15000200F
S113189000F0EEFA002000F0E7F90020FFF7BEFAAE
S11318A000F02CFC0020FFF779FE002000F094F9F2
S11318B00020FFF733FD002000F012F9002000F0B3
S11318C0C1F80020FFF7CAFD002000F091F80020C5
S11318D000F030F8002000F0A1FA002000F074FAC3
S11318E0002000F051F8002000F042F9002000F040
S11318F037FA002000F000FAFFF7FCFC62B6BD46A0
S113190080BDC04600900440FFF8FFFE00F0074091
S113191000D0074000E0074000E100E0FFFF00FFC7
S113192080B582B000AF786000F07CFFBD4602B0A5
S113193080BDC04680B584B000AF78600D4BFB60BD
S1131940FB687A681A600C4B0B4A526908218A4377
S11319505A610A4B094AD168094A0A408021490060
S11319600A43DA60074BFA689A63FB68181CBD46A1
S113197004B080BDB4F0FF1F00F10F4000D004405C
S1131980FFF8FFFE58F0FF1F80B584B000AF786009
S1131990114BFB60FB687A681A60104B0F4A52695E
S11319A0802149000A435A610C4B0C4A11680C4AC5
S11319B00A401A600B4B0B4A116A0B4A0A408021F9
S11319C049000A431A62094BFA689A64FB68181CB6
S11319D0BD4604B080BDC046B8F0FF1F40F00F40C4
S11319E0FFFEFFFF00A00440FFF8FFFE58F0FF1FBA
S11319F080B584B000AF78600D4BFB60FB687A68FB
S1131A001A600C4B0B4A526904218A435A610A4BEF
S1131A10094A9168094A0A40802149000A439A60A8
S1131A20074BFA685A63FB68181CBD4604B080BDB6
S1131A30BCF0FF1F00F10F4000D00440FFF8FFFE90
S1131A4058F0FF1F80B584B000AF7860114BFB6085
S1131A50FB687A681A60104B0F4A52698021890327
S1131A600A435A610C4B0C4A11680C4A0A401A602A
S1131A700B4B0B4A516D0B4A0A40802149000A4323
S1131A805A65094BFA689A62FB68181CBD4604B093
S1131A9080BDC046C0F0FF1F00F10F40FFFFDFFF15
S1131AA000D00440FFF8FFFE58F0FF1F80B582B05D
S1131AB000AF78600A1CFB1C1A70FB1C1B78002BFF
S1131AC004D0064B802292035A6003E0034B802229
S1131AD092039A60BD4602B080BDC04600F10FF883
S1131AE080B584B000AF7860104BFB60FB687A6807
S1131AF01A600F4B0E4A526904210A435A610C4B77
S1131B000B4A126804218A431A600A4B094A9168F5
S1131B10094A0A40802149000A439A60074BFA683F
S1131B205A62FB68181CBD4604B080BDC4F0FF1F98
S1131B3080F00F4000B00440FFF8FFFE58F0FF1F94
S1131B4080B582B000AF78600A1CFB1C1A70FB1CC5
S1131B501B78002B03D0054B04225A6002E0034B90
S1131B6004229A60BD4602B080BDC04680F00FF8E2
S1131B7080B584B000AF7860114BFB60FB687A6875
S1131B801A60104B0F4A5269802189000A435A6136
S1131B900C4B0C4A11680C4A0A401A600B4B0B4A56
S1131BA0516A0B4A0A40802149000A435A62094B90
S1131BB0FA68DA64FB68181CBD4604B080BDC046F0
S1131BC0C8F0FF1F40F00F40FFFDFFFF00A00440DE
S1131BD0FFF8FFFE58F0FF1F80B584B000AF7860B7
S1131BE0104BFB60FB687A681A600F4B0E4A52690F
S1131BF008210A435A610C4B0B4A126808218A4394
S1131C001A600A4B094AD168094A0A4080214900EE
S1131C100A43DA60074BFA68DA61FB68181CBD46B0
S1131C2004B080BDCCF0FF1F80F00F4000B0044032
S1131C30FFF8FFFE58F0FF1F80B582B000AF786058
S1131C400A1CFB1C1A70FB1C1B78002B03D0054BD1
S1131C5008225A6002E0034B08229A60BD4602B093
S1131C6080BDC04680F00FF880B584B000AF7860C6
S1131C70104BFB60FB687A681A600F4B0E4A52697E
S1131C8080210A435A610C4B0B4A126880218A4313
S1131C901A600A4B094AD169094A0A40802149005D
S1131CA00A43DA61074BFA685A60FB68181CBD46A0
S1131CB004B080BDD0F0FF1FC0F00F4000C004404E
S1131CC0FFF8FFFE58F0FF1F80B582B000AF7860C8
S1131CD00A1CFB1C1A70FB1C1B78002B03D0054B41
S1131CE080225A6002E0034B80229A60BD4602B013
S1131CF080BDC046C0F00FF880B584B000AF7860F6
S1131D00114BFB60FB687A681A60104B0F4A5269EA
S1131D10802109010A435A610C4B0C4A11680C4A90
S1131D200A401A600B4B0B4AD16A0B4A0A408021C5
S1131D3049000A43DA62094BFA685A65FB68181CC1
S1131D40BD4604B080BDC046D4F0FF1F40F00F4034
S1131D50FFF7FFFF00A00440FFF8FFFE58F0FF1F4D
S1131D6080B584B000AF7860114BFB60FB687A6883
S1131D701A60104B0F4A52698021C9000A435A6104
S1131D800C4B0C4A11680C4A0A401A600B4B0B4A64
S1131D90916A0B4A0A40802149000A439A62094B1E
S1131DA0FA681A65FB68181CBD4604B080BDC046BD
S1131DB0D8F0FF1F40F00F40FFFBFFFF00A00440DE
S1131DC0FFF8FFFE58F0FF1F80B584B000AF7860C5
S1131DD00D4BFB60FB687A681A600C4B0B4A526926
S1131DE020218A435A610A4B094A5169094A0A4027
S1131DF0802149000A435A61074BFA681A64FB6858
S1131E00181CBD4604B080BDDCF0FF1F00F10F407C
S1131E1000D00440FFF8FFFE58F0FF1F80B584B0E7
S1131E2000AF78600D4BFB60FB687A681A600C4B5E
S1131E300B4A526910218A435A610A4B094A1169B3
S1131E40094A0A40802149000A431A61074BFA688B
S1131E50DA63FB68181CBD4604B080BDE0F0FF1FC8
S1131E6000F10F4000D00440FFF8FFFE58F0FF1FC0
S1131E7080B584B000AF7860104BFB60FB687A6873
S1131E801A600F4B0E4A526902210A435A610C4BE5
S1131E900B4A126802218A431A600A4B094A5168A4
S1131EA0094A0A40802149000A435A60074BFA68EC
S1131EB01A60FB68181CBD4604B080BDE4F0FF1F27
S1131EC000F10F4000D00440FFF8FFFE58F0FF1F60
S1131ED080B582B000AF78600A1CFB1C1A70FB1C32
S1131EE01B78002B03D0054B02225A6002E0034BFF
S1131EF002229A60BD4602B080BDC04600F10FF8D0
S1131F0080B500AF144B1B78002B1DD0134B1B68FE
S1131F10181C00F077F9124B1B78DBB2002B18D099
S1131F20104B00221A70104B00221A700B4B1A68C7
S1131F300D4B101C191C012200F0CAF9074B1B6839
S1131F40181C00F083F904E0044B1B68181C00F013
S1131F5065F9BD4680BDC046E8F0FF1F40F1FF1F94
S1131F60E9F0FF1FF0F0FF1FECF0FF1F80B500AF9A
S1131F70074B1B78002B01D0002305E0044B012202
S1131F801A70FFF7BDFF0023181CBD4680BDC04674
S1131F90E8F0FF1F80B500AF074B1B78002B01D181
S1131FA0002305E0044B00221A70FFF7A9FF002369
S1131FB0181CBD4680BDC046E8F0FF1F80B500AFC9
S1131FC00A4B1B78002B01D107230CE0084B1B782C
S1131FD0DBB2002B01D0082305E0054B02221A7066
S1131FE0FFF78EFF0023181CBD4680BDE8F0FF1FDD
S1131FF0E9F0FF1F80B500AF094B1B78DBB2022B61
S113200001D0082308E0064B00221A70054B1B6818
S1132010181C00F043F90023181CBD4680BDC046BF
S1132020E9F0FF1F40F1FF1F80B582B000AF786078
S1132030094B1B78DBB2002B01D1092308E0074BC5
S11320401B889BB21B0A9BB2DAB27B681A7000230E
S1132050181CBD4602B080BDF0F0FF1F3CF1FF1F0D
S113206080B582B000AF78601F4B1B78DBB2002BC9
S113207035D01D4B1B78DBB2042B0AD11B4B1B68DC
S1132080181C00F095F9184B00221A7000F0C6FBDA
S113209026E0164B1A68164B101C191C00F052F956
S11320A0144B01221A7000F083FB0F4B1B78DBB238
S11320B0012B03D10C4B00221A7011E00E4B0022AD
S11320C01A700A4B1A680C4B101C191C012200F0E0
S11320D0FFF8064B1B68181C00F0B8F800E0C04677
S11320E0BD4602B080BDC046E9F0FF1F40F1FF1FAE
S11320F03CF1FF1FF0F0FF1FECF0FF1F80B500AFB5
S1132100084B01221A70084B00221A70074B002258
S11321101A70002000F00EF8021C054B1A60BD4630
S113212080BDC046E8F0FF1FF0F0FF1FE9F0FF1F7D
S113213040F1FF1F80B584B000AF7860284BFB608E
S1132140FB687A685A60274BFA681A60FB680022B9
S11321501A70FB6801225A70FB680022DA70224A66
S11321602149224BCB588021090519431F4BD150DB
S11321701F4A1F49C3239B00CB581B021B0A802103
S113218009061943C3239B00D150194B184A1268FE
S1132190802109020A431A60164B164A5169164AED
S11321A00A405A61154B154AD26810210A43DA6075
S11321B0124B6C229A60114B104AD2680F218A4349
S11321C0DA600E4B00221A620C4B40225A620C4B0E
S11321D0FA681A61FB68181CBD4604B080BDC0468D
S11321E0F4F0FF1FFCF0FF1F007004403C100000DF
S11321F000E100E000C00440FFF8FFFE00B003402F
S113220058F0FF1F80B582B000AF78607B68012270
S11322105A700023181CBD4602B080BD80B582B040
S113222000AF78607B6800225A70074B064A126A36
S113223040218A431A62044B1F221A600023181C8F
S1132240BD4602B080BDC04600B0034080B582B038
S113225000AF78607B685B78002B01D1072317E01F
S11322600D4B1A6A8023134001D0082310E00A4B57
S1132270094A526A08218A435A62074B064A126A7B
S113228040218A431A62044B7A6892781A600023C8
S1132290181CBD4602B080BD00B0034080B582B0BA
S11322A000AF78607B685B78002B01D1072309E0DD
S11322B0064B064A126A40218A431A62034B1F22C4
S11322C01A600023181CBD4602B080BD00B0034054
S11322D080B586B000AFF860B960FB1D1A70FB686A
S11322E07B61FB685B78002B01D1072321E0FB1D98
S11322F01B78012B03D8FB1D1B78002B01D19623DF
S113230017E00E4B1A6A8023134001D0082310E013
S11323107B69FA1D12781A70BB681B78002B01D0F8
S1132320822306E0BB681B78054AD25C7B699A70FD
S11323300023181CBD4606B080BDC04600B0034053
S1132340F839000080B584B000AF786039603B682C
S1132350BB607B685B78002B01D1072322E03B1C28
S11323600F3300221A7015E03B1C0F331B785B00FF
S1132370BA68D3180D4A391C0F3109780431890021
S11323808A5892B21A803B1C0F333A1C0F321278CF
S113239001321A707B681B783A1C0F3212789A4209
S11323A0E2D30023181CBD4604B080BD00B0034036
S11323B080B584B000AF78602A4B5A6A402313403A
S11323C001D01B234AE0274BDB6CFB60254B9B6C45
S11323D0FA68D318FB60234B5B6CFA68D318FB6074
S11323E0204B1B6CFA68D318FB601E4BDB6BFA683E
S11323F0D318FB601B4B9B6BFA68D318FB60FB681C
S11324005B08802212021343FB60164BFA68DA62FF
S1132410144BDB6EFB60134B9B6EFA68D318FB60A6
S1132420104B5B6EFA68D318FB600E4B1B6EFA6898
S1132430D318FB600B4BDB6DFA68D318FB60094BB8
S11324409B6DFA68D318FB60FB685B08802212025C
S11324501343FB60034BFA681A630023181CBD4640
S113246004B080BD00B0034080B582B000AF084B1B
S11324701B687B607B680122DA707B685B68181CD0
S1132480FFF7EEFD034B1B69BD4602B080BDC0469D
S1132490FCF0FF1F00B0034080B584B000AF78604B
S11324A03D4BFB60FB6800221A81FB6800221A8204
S11324B0FB680022DA60FB687A685A61374A374958
S11324C0374BCB588021C9001943354BD150354B7C
S11324D0344A9168344A0A40802189000A439A6048
S11324E0324B324AD278D2B208218A43D2B2DA705D
S11324F0FB6800221A80FB6800225A602B4B0022E2
S11325009A702A4B00229A71284B00225A71234A4E
S11325102249274BC958274B0B408021C904194332
S1132520234BD150214B214A1278D2B2D2B21F216F
S11325308A43D2B202210A43D2B2D2B21A701B4BDE
S113254022225A70194B194A927AD2B2D2B21F215E
S11325508A43D2B203210A43D2B2D2B29A72134B43
S1132560124AD27AD2B2D2B202210A43D2B2D2B23F
S1132570DA720E4B0D4AD278D2B2D2B208210A4393
S1132580D2B2D2B2DA700C4BFA689A65FB68181CA6
S1132590BD4604B080BDC04600F1FF1F007004407A
S11325A03410000000900440FFF8FFFE00A0064035
S11325B004100000FFFFFFF358F0FF1F80B500AFC9
S11325C0054A064BD31A054A101C00211A1C00F0B8
S11325D0A3F9BD4680BDC046ACF2FF1F04F0FF1F47
S11325E001F0D2F9FFF786F8FFF7E8FF01F0A4F94C
S11325F001F040F901F0D6F9044B0020191C00F059
S11326007BF8031C181C00F06BF9C04618F1FF1F7F
S113261080B582B000AF7860FEE7C04680B582B076
S113262000AF021CBB1D1A80BB1D00215A5E0D4B5E
S11326309A4202DCBB1D0C4A1A80BB1D00215A5E63
S11326400A4B9A4202DDBB1D084A1A80084B1A6BDA
S1132650BB1D1B88101C191CFEF72AFFBD4602B0C7
S113266080BDC0463547000036470000524900008F
S113267058F0FF1F80B582B000AF0A1CBB1D011CBF
S113268019803B1D1A80BB1D00215B5E002B02DC00
S1132690BB1D01221A80BB1D00215A5E144B9A42B5
S11326A002DDBB1D124A1A803B1D00229B5E002BDB
S11326B002DC3B1D01221A803B1D00215A5E0C4B9B
S11326C09A4202DD3B1D0A4A1A800A4B9A69BB1DD5
S11326D01B88101C191CFEF78BFF064B1A6A3B1D46
S11326E01B88101C191CFEF743FEBD4602B080BDBA
S11326F0E703000058F0FF1F80B500AFFFF774F840
S1132700FFF75CFC234B9B6A181C0121FFF7CEF9F1
S1132710204B9A69FA239B00101C191CFEF768FFD2
S11327201C4B1A6AFA239B00101C191CFEF720FE8E
S1132730184BDB69181C0021FFF77EFA154B5B6A06
S1132740181C0021FFF7FCF900E0C046124B1B786F
S1132750012BFAD1104B00221A70104B181CFFF7F2
S11327605DFFFA239A00FA239B00101C191CFFF743
S113277081FF0B4B00221A700A4BFF221A70FFF7DD
S1132780F5FBFFF71BFC034BDB68181CFEF76AFB29
S1132790DBE7C04658F0FF1F1EF1FF1F444800004E
S11327A01FF1FF1F00F0FF1F80B500AFBD4680BDC5
S11327B080B500AF144B181CFFF736FC134B1B7885
S11327C0DBB25BB2002B1CDB104B1B781A1C0E4BCC
S11327D01B78191C0E4B5200D1520B4B1A780D4B1F
S11327E01B789A4203D9084B1A780A4B1A70064B85
S11327F01A78094B1B789A4203D2034B1A78064B7A
S11328001A70BD4680BDC046A8F2FF1F1DF1FF1F10
S1132810A8F1FF1F1FF1FF1F00F0FF1F80B500AFDD
S1132820BD4680BD80B500AF294B1B78802B1CD8DA
S1132830284B1B78012B0FD1254B1B78012B05D876
S1132840254B5B68181C0021FFF73EFA204B1B78D0
S11328500133DAB21E4B1A701E4B1B785A42534195
S1132860DBB21A1C1B4B1A7019E01A4B00221A70A7
S1132870174B00221A70184B1A68164B1B78101C41
S1132880191CFFF725FB144BDB68181CFEF702FB31
S1132890FFF7B0FBFFF77EFB104B01221A700C4BC5
S11328A01B78002B09D10B4B1B78002B05D10A4B4D
S11328B05B68181C0121FFF707FA074B1A68054BE0
S11328C01B78101C191CFFF703FBBD4680BDC046D6
S11328D01DF1FF1F1CF1FF1F58F0FF1F1EF1FF1F0A
S11328E038B5051C01F042F800F0E8FF084C2368F5
S11328F0002B02D0984700202060064C2168002954
S113290002D0884700222260281CFFF781FE38BDD0
S113291020F1FF1F24F1FF1F10B5041C00F03EFF3F
S1132920201C10BDF0B589B001901F1C0EAB0391A3
S1132930079202901A78081C01990FAC01380026FE
S1132940049225780670B14217D1119BB34214D179
S1132950049B002B01D06F2D2FD0642D02D0692D44
S113296000D0A8E0022F02D1039802389FE0012F83
S113297000D0A0E00398023894E0692D0ED004D86A
S1132980582D16D0642D1CD108E0752D04D0782D57
S11329900FD06F2D15D110E0002712E0019A002A04
S11329A00FDA80242606B2420DD0514201910291E1
S11329B009E000273E1C102407E000273E1C0824E1
S11329C003E0002600E001260A240090002006907F
S11329D00298211CFDF774FD02980591211CFDF756
S11329E02BFD059A0290092A01D8303205E0059A98
S11329F03732782D01D1059A57320098069B0299F7
S1132A000138D2B2009002700133002901D006933C
S1132A10DEE7011C082C0BD10498002808D0302ACA
S1132A2006D00B1C013B302200931A70069B023324
S1132A30079802280FD1002E01D1002F02D010993F
S1132A4001391091109A1192102C04D10498002885
S1132A5001D0023A119203990098119A091A89181F
S1132A60164A914226DC0099CA181199121A8A4210
S1132A7003DA013830220270F5E7102C0AD1049CE5
S1132A80002C07D0019B002B04D0421E30210238B9
S1132A9015700170002E02D001382D2108E0012F9D
S1132AA002D101382B2103E0022F04D10138202167
S1132AB0017000E0002009B0F0BDC046FD01000037
S1132AC0F0B5B64C1E1CA5446B460A900B913E33E0
S1132AD020210020197008920590089A1578002D7D
S1132AE000D1F9E10898252100F0ADFE0C900028F2
S1132AF011D1089800F0B6FE0599021C081805903B
S1132B00002A00D1E8E10B9808990A9EB0470028F2
S1132B1000D0E1E1CEE00C9F089C05993A1B8B188C
S1132B200593002A0CD10C980C9A437801321D1E8F
S1132B30252D0CD000270121BC460D97069119E0E4
S1132B400B9808990A9DA8470028ECD1B2E00C9A8A
S1132B500021023201240892079106943DE02B2BB8
S1132B600BDC202B10D0232B00D0BAE001239C4691
S1132B70013213782B2BF2D1ABE12D2B00D1A5E13F
S1132B80302B00D0ADE004E00D9D012DF0D00220EB
S1132B90A0E1069C002CEBD002200690E8E7376801
S1132BA00436FB43D80F937802321C1C683C002186
S1132BB0042C00D8C1E0DDB26E2B00D0C7E0013296
S1132BC008926E2D00D149E100D900E1632D00D1B6
S1132BD059E107D8252D00D0F3E010AC25700996F3
S1132BE0012619E0642D00D0EEE0321D0992306810
S1132BF0032900D0F6E007996646009601950291F4
S1132C00039790A9069A0D9BFFF78CFE041E00D132
S1132C103FE1634F6F443E1A069800283CD02023BE
S1132C20022800D130236F463E373B7022782B2A8E
S1132C3004D02D2A02D0371C202A0BD1371C302B6C
S1132C4008D10B98211C01220A9B9847002831D0F7
S1132C500134771E069902290ED1612D01D0412D30
S1132C600AD1012F26DD0B98211C02220A9DA847B8
S1132C7000281FD0023F0234351C079EB54209DAF2
S1132C8069460B983E3101220A9B9847002811D0CF
S1132C900135F2E73E1C00E0351C002E03D10698F6
S1132CA0002819D115E0211C0B98321C0A9CA0475E
S1132CB00028F4D10122554205950DE169463F31C2
S1132CC020240B9801220A9F0C70B8470028F1D0E9
S1132CD00135079FBD42F1DB059A53190593099EFF
S1132CE0FBE6171C2A2B00D0E1E0341D366807965A
S1132CF0002E03DA73420025079306957B78013290
S1132D00261C284F0798B84200DDC2E02E2B11D1B3
S1132D1053782A2B00D142E7013200271C1C303C97
S1132D20092C05D80A214F4301323F191378F5E7DE
S1132D3001203AE70027381C37E71B4D295D1B4D5E
S1132D402C57002C00D136E75378013233E76E2B31
S1132D500ADC632B2CD002DC582B30D115E0642B19
S1132D6013D0692B2BD110E0732B23D009DC6F2BEC
S1132D700BD0702B23D101237825082703219C46EF
S1132D801DE7752B01D0782B19D1002815D0069C8E
S1132D90022C00D013E70123069310E7BCFDFFFFCC
S1132DA03F020000FD010000023A0000FD3900006E
S1132DB0002804D1002902D101E70127FFE6FF25FD
S1132DC0FDE6582D65D116E0692D62D10DE7732D0E
S1132DD023D002D86F2D5CD10DE0752D0BD0782D4A
S1132DE057D108E0022901D100B204E7012900D03B
S1132DF001E740B2FFE6341D09943068032906D088
S1132E00022901D180B202E0012900D1C0B2079E9B
S1132E106246009201950296F2E63468311D0991EA
S1132E20002C00D12F4C6346002B07D026780134A8
S1132E30002800D1F0E6BE4237DCEDE6002808D0D9
S1132E40201C61463A1C00F0E8FC00282DD0061B2B
S1132E50E2E6201C00F006FD061CDDE6351D0995A2
S1132E603468022907D003290AD0002900D036E7A4
S1132E700598206033E76F461421CB5B23802EE74F
S1132E80059A22602BE73368301D10AC099023703B
S1132E90A6E60C9800F0E6FC059E021C3518059584
S1132EA0002819D00B980C992FE63E1CB4E6002498
S1132EB00794191C3039092900D922E7079D0A23F0
S1132EC06B430132581807901378F2E700270697EE
S1132ED04EE601200D904BE605989124A400A544EC
S1132EE0F0BDC046FC390000F0B50027A9B005903C
S1132EF006910F9309920D970B9708970A970C97D1
S1132F000497099D2C78002C00D103E3201C00F0C9
S1132F1047FB002822D0099A01321078099200F068
S1132F203FFB0028F7D1002F00D0F1E200210698E2
S1132F300A1C059CA047061C00F032FB002803D0A5
S1132F40049B01330493F1E7701C04D12E980028EC
S1132F5000D1DFE201270698311CABE2252C1BD0FF
S1132F60002F19D1391C06983A1C059EB047C1B2EE
S1132F70A1420AD006980122B0472E9F002F00D10B
S1132F80C8E2099D01350995C2E2049B0999013300
S1132F90013104930991B4E71EAC201C00212822BE
S1132FA0FFF7BAFC0998A54E45786660281E2528C7
S1132FB00CD1211C14A82822E57000F03BFC099CCC
S1132FC000200234099407900E90D7E02A2D02D0F5
S1132FD0099C013405E0012309992370099C887830
S1132FE00234021C303A092A1FD800260A256E43EF
S1132FF03038013436182078031C303B092BF5D9BE
S11330001EAD6E60002E0ED101235942E97014A842
S1133010291C2822013400F00DFC2B780994FF258B
S113302007960E969DE001266E701EA9682804D0AE
S11330306C280CD10320887007E0637802228A7020
S1133040682B02D101258D706419607801341EABA0
S1133050D8705838202871D8FDF7E4F97270702BB5
S113306070707070707070157270707070727070B3
S11330707070727211707019707270707200032621
S11330809E7078215BE09A78002A59D056E09978AE
S1133090002901D0FF20D87000231EAAD518FF26CE
S11330A001332E72202BF8D1C121FE2051721073EE
S11330B046E09D78002D01D0FF26DE7063785E2BFC
S11330C002D00134002102E0A378012102345D2BF7
S11330D007D11EAB2020D8746378013401E0E37873
S11330E00334002B00D139E25D2B00D139E2DDB28B
S11330F0EA081EAE0720B218184001258540107A50
S11331002E1C6578064316722D2D14D1A278002A40
S113311011D05D2A0FD001339342E0DCDEB2F00817
S11331201EAD281807251D400126AE40351C067A21
S113313035430572EFE701342B1CD2E7FF21D97028
S11331401EAE311C282214A800F074FB6A467A32A1
S11331507178107833780E910790F5780134766899
S11331600994002B06D1252D08D00F9A1468043237
S11331700F9200E000246E2D01D1ADE10024002F58
S113318001D001270AE00698391C0222059B9847C2
S1133190002803D02E9F002FF3D1BBE1692D25D049
S11331A012D85B2D00D115E106D8252D00D1D3E02E
S11331B0582D00D0AEE13EE0632D00D17CE0642DBB
S11331C000D0A7E10A2012E0732D00D1E6E007D871
S11331D06E2D00D180E16F2D00D09BE1082030E0FE
S11331E0752D2DD0782D00D094E124E00020002FFF
S11331F048D112A913AA11AD01910292311C009574
S1133200059A069B00F0E3F9119E002E05D12E9835
S1133210002828D101240B947CE1049B129D9E1963
S11332200496002D05D080210A06904201D0434225
S11332302AE0031C28E0102003E0C046FFFFFF7FC4
S11332400A20002F1ED111AB13A912AD00930291D5
S1133250069B311C0195059A00F0B9F9119E031CD7
S1133260002E03D1D3E70127331C0DE0049A129DED
S113327090190490002D07D080210E06B34203D08C
S11332805B4201E001270023002C11D0079E032E8E
S113329009D8301CFDF7C6F806020406237002E0C4
S11332A0238000E023600C9D794279416A180C92D6
S11332B00A9801300A906EE00E98002800D1012689
S11332C0002C33D000211191A6198F4200D01FE1A8
S11332D0B44219D02E9A002A04D01198002811DA89
S11332E001230D93002106980A1C059DA847089008
S11332F0013009D008AB1D782570119901340131D2
S11333001191E5E700240D94119E2E9A002E00D110
S1133310A0E0002A03D00D99002900D1F8E0049A16
S11333200C9C9019013404900C94D1E01194013E4A
S1133330701C0CD0002106980A1C059B9847013E7E
S11333400890013003D0119D01351195F0E7119ECD
S1133350002E00D0BCE0DDE0002F00D0D5E000213D
S113336006980A1C059EB047051C00F019F90028B0
S113337003D0049C01340494F1E7252D08D00122E4
S11333800698291CB0472E9A002A00D142E7BCE0D7
S113339004990131049101240B94B2E501230B93A8
S11333A0002F17D10698391C3A1C059DA847051C07
S11333B000F0F6F8002806D0049B002101330493A2
S11333C006980A1CF1E701220698291C059B9847D8
S11333D001220B92002C49D0002111918F4200D080
S11333E096E0013E351C711C24D02E9A002A04D08C
S11333F0119B002B1CDC01200D90002106980A1C57
S1133400059B98470890013014D008A90B7814A89C
S1133410DA088218089807210140127A01208840AE
S1133420104207D02370119D013401351195D8E75E
S113343000260D96119B08AE3178002B05D02E98EE
S113344000280AD00D9A002A07D101220698059F68
S1133450B8472E9A002A5DD05AE00020049E2070BE
S11334600C9CF318013404930C942BE01194013E4A
S1133470351C711C19D0002106980A1C059CA04714
S11334800890013011D008A8017814AACB08089834
S1133490D418072303400121247A9940013E214294
S11334A003D0119D01351195E2E7119E002E05D13F
S11334B0069808990122059B984722E5049B0899E0
S11334C098190490002D03DB06980122059DA84756
S11334D00A9901310A9114E5002C00D111E5079AEB
S11334E0032A00D90DE5101CFCF79CFF070A02070C
S11334F06D4610214A5B228003E50498206000E5B4
S113350068461026335C2370FBE401270B97F8E42C
S11335100127F6E4002106980222059DA8470A998E
S1133520002805D0002928D1012670420C9024E0FF
S1133530002922D10B9A002A1FD00A9906980A1C46
S1133540059FB8470A99041C02220698B847002828
S1133550EAD10698211C0122B8470EE0FF211EABD8
S1133560EDE5002900D1EBE520AD2A7828A8D64363
S11335702E7001358542F8D1E2E50C9829B0F0BDF2
S11335808022031C00B5002051008B4204D803485C
S11335900122C3185878104000BDC046073A000005
S11335A08022031C00B5002051008B4204D803483C
S11335B01022C3185878104000BDC046073A0000D6
S11335C0031C613B00B5192B00D8203800BDF0B5B1
S11335D087B0059101930D990E9B009200220A6019
S11335E0071C1A60904216DB012814D0242812DC30
S11335F00598904207DD009C0198111CA047012604
S1133600041C351C02E0141C161C402500220392E5
S1133610974209D002E0141C161C4025012148429F
S1133620391CFCF709FF03900023029304930598C7
S1133630864200DD9EE0621C00D19BE060221542C0
S113364000D097E0681E0F28F1D8FCF7E1FE082EA1
S1133650F03FF0F0F052F0F0F0F0F0F0F052201CF7
S1133660FFF79EFF021E09D00021009C01980A1C4E
S1133670A047041C049801300490D8E72B2C07D1F0
S1133680009D0198111CA8470136041C0225CEE7B1
S113369002252D2CCBD1111C0198009B98470D9924
S11336A001220136041C0A60C1E7002F02D008255C
S11336B0102FBCD10825302CB9D10021009C0198D1
S11336C00A1CA0470136041C0425B0E7582C01D07D
S11336D0782C09D1002101980A1C009B98470136D7
S11336E0041C08251027A2E71025002F9FD10827C6
S11336F09DE7002F00D10A270398002805D1012255
S11337005042391CFCF798FE0390201C30380928DD
S113371002D8B84211DB0BE0201CFFF731FF002870
S113372006D0201CFFF74CFF011C3639B94203DDDB
S1133730102D1DD120257AE73738029D039C0123E3
S1133740A54201D80E9B1B68029AC5B27A43D143A5
S11337508D4200D901230E9C801800212360029021
S1133760009D01980A1CA8470136041C10255EE739
S113377040255CE734273D4003D10C9B02951D6036
S113378004E0049D013E0C9976190E60211C0198F9
S11337900122009CA047029807B0F0BD30B5C9B221
S11337A0031C1F2A31D944420323234005D0D21AD3
S11337B0C51801700130A842FBD1002905D00D06BF
S11337C00C042C430B02214319435409031C002C01
S11337D00ED0251C013D196059609960D9601961AA
S11337E059619961D9612033002DF3D16301C31864
S11337F0D006400F07D0041C1D1C013C02C5002C40
S1133800FBD180001B18032422409D18002A03D0FA
S113381019700133AB42FBD130BD00B5C9B2821877
S1133820904205D0037801308B42F9D1013800E091
S1133830002000BD10B50023934203D0CC5CC454D7
S11338400133F9E710BD00B5C9B20378421C002B5F
S113385003D08B4205D0101CF7E74B425941494233
S1133860084000BD00B5431E01331A78002AFBD17D
S1133870181A00BD10B50B4C0B4B9C4202D001CC66
S11338808047F9E7094C0A48844202D008CC98479B
S1133890F9E7084C08498C4202D004CC9047F9E778
S11338A010BDC046083B0000083B0000083B000078
S11338B0083B0000083B0000083B000010B5084C22
S11338C0084B9C4202D004CC9047F9E7064C0748C9
S11338D0844203D0043C21688847F8E710BDC04601
S11338E0083B0000083B0000083B0000083B0000C8
S11338F000B588421FD0002A1DD00323194207D1E6
S1133900184205D19A4203D908C9043A08C0F2E71B
S11339100123194209D1184207D19A4205D90B88CB
S1133920023A038002310230E5E70B78013A037072
S113393001310130DFE700BD38B50B4D002D11D04A
S113394000242B191968002906D02B1958689A6885
S1133950FFF7CEFF0C34F4E75A68002AF5D19868D3
S11339600028F2D138BDC0460C3B0000054B10B511
S11339701C68002C04D0A068616888472468F8E7B4
S113398010BDC04634F1FF1F054B181C002805D09C
S1133990854681B00020C043009001B0F7467047CF
S11339A000300020F74670475007000092080000DE
S11339B0920800008A0800007808000078080000D7
S11339C0700800008A0800007808000070080000F1
S11339D0780800008A0800001C0800001C08000089
S11339E01C08000096080000010000000000000010
S11339F00300000000000000460000000001000079
S1133A0000010200000003008080808080808080AC
S1133A108090909090908080808080808080808052
S1133A20808080808080808018040404040404045E
S1133A300404040404040404020202020202020252
S1133A40020204040404040404434343434343417F
S1133A504141414141414141414141414141414152
S1133A604141410404040404042323232323232184
S1133A702121212121212121212121212121212132
S1133A80212121040404048000000000000000003F
S1133A900000000000000000000000000000000022
S1133AA00000000000000000000000000000000012
S1133AB00000000000000000000000000000000002
S1133AC000000000000000000000000000000000F2
S1133AD000000000000000000000000000000000E2
S1133AE000000000000000000000000000000000D2
S1133AF000000000000000000000000000000000C2
S10B3B000000000000000000B9
S1073B08FF000000B6
S1133B0C083B000000F0FF1F040000000000000050
S10B3B1C00000000000000009D
S90325E1F6
